{
  "contractName": "DeedMulti",
  "abi": [
    {
      "inputs": [
        {
          "internalType": "address",
          "name": "_address",
          "type": "address"
        },
        {
          "internalType": "address payable",
          "name": "_beneficiary",
          "type": "address"
        },
        {
          "internalType": "uint256",
          "name": "time",
          "type": "uint256"
        }
      ],
      "stateMutability": "payable",
      "type": "constructor",
      "payable": true
    },
    {
      "inputs": [],
      "name": "beneficiary",
      "outputs": [
        {
          "internalType": "address payable",
          "name": "",
          "type": "address"
        }
      ],
      "stateMutability": "view",
      "type": "function",
      "constant": true
    },
    {
      "inputs": [],
      "name": "deploymentTime",
      "outputs": [
        {
          "internalType": "uint256",
          "name": "",
          "type": "uint256"
        }
      ],
      "stateMutability": "view",
      "type": "function",
      "constant": true
    },
    {
      "inputs": [],
      "name": "lawyer",
      "outputs": [
        {
          "internalType": "address",
          "name": "",
          "type": "address"
        }
      ],
      "stateMutability": "view",
      "type": "function",
      "constant": true
    },
    {
      "inputs": [],
      "name": "withdraw",
      "outputs": [],
      "stateMutability": "nonpayable",
      "type": "function"
    },
    {
      "inputs": [],
      "name": "suddenDeath",
      "outputs": [],
      "stateMutability": "nonpayable",
      "type": "function"
    }
  ],
  "bytecode": "0x608060405260405162000b8038038062000b808339818101604052810190620000299190620001c6565b826000806101000a81548173ffffffffffffffffffffffffffffffffffffffff021916908373ffffffffffffffffffffffffffffffffffffffff16021790555081600160006101000a81548173ffffffffffffffffffffffffffffffffffffffff021916908373ffffffffffffffffffffffffffffffffffffffff1602179055504281620000b8919062000251565b600281905550600434620000cd9190620002dd565b60038190555050505062000315565b600080fd5b600073ffffffffffffffffffffffffffffffffffffffff82169050919050565b60006200010e82620000e1565b9050919050565b620001208162000101565b81146200012c57600080fd5b50565b600081519050620001408162000115565b92915050565b60006200015382620000e1565b9050919050565b620001658162000146565b81146200017157600080fd5b50565b60008151905062000185816200015a565b92915050565b6000819050919050565b620001a0816200018b565b8114620001ac57600080fd5b50565b600081519050620001c08162000195565b92915050565b600080600060608486031215620001e257620001e1620000dc565b5b6000620001f2868287016200012f565b9350506020620002058682870162000174565b92505060406200021886828701620001af565b9150509250925092565b7f4e487b7100000000000000000000000000000000000000000000000000000000600052601160045260246000fd5b60006200025e826200018b565b91506200026b836200018b565b9250827fffffffffffffffffffffffffffffffffffffffffffffffffffffffffffffffff03821115620002a357620002a262000222565b5b828201905092915050565b7f4e487b7100000000000000000000000000000000000000000000000000000000600052601260045260246000fd5b6000620002ea826200018b565b9150620002f7836200018b565b9250826200030a5762000309620002ae565b5b828204905092915050565b61085b80620003256000396000f3fe608060405234801561001057600080fd5b50600436106100575760003560e01c80630f37a5451461005c57806338af3eed146100665780633bfb6e31146100845780633ccfd60b146100a2578063ecda10f5146100ac575b600080fd5b6100646100ca565b005b61006e61015a565b60405161007b91906103f4565b60405180910390f35b61008c610180565b6040516100999190610430565b60405180910390f35b6100aa6101a4565b005b6100b46103ad565b6040516100c19190610464565b60405180910390f35b60008054906101000a900473ffffffffffffffffffffffffffffffffffffffff1673ffffffffffffffffffffffffffffffffffffffff163373ffffffffffffffffffffffffffffffffffffffff1614610158576040517f08c379a000000000000000000000000000000000000000000000000000000000815260040161014f90610502565b60405180910390fd5b565b600160009054906101000a900473ffffffffffffffffffffffffffffffffffffffff1681565b60008054906101000a900473ffffffffffffffffffffffffffffffffffffffff1681565b600160009054906101000a900473ffffffffffffffffffffffffffffffffffffffff1673ffffffffffffffffffffffffffffffffffffffff163373ffffffffffffffffffffffffffffffffffffffff1614610234576040517f08c379a000000000000000000000000000000000000000000000000000000000815260040161022b90610594565b60405180910390fd5b6004805410610278576040517f08c379a000000000000000000000000000000000000000000000000000000000815260040161026f90610626565b60405180910390fd5b6002544210156102bd576040517f08c379a00000000000000000000000000000000000000000000000000000000081526004016102b490610692565b60405180910390fd5b60006001600254426102cf91906106e1565b6102d99190610744565b90506000600454826102eb91906106e1565b905060048054826102fc9190610775565b10156103085780610318565b600454600461031791906106e1565b5b9050806004600082825461032c9190610775565b92505081905550600160009054906101000a900473ffffffffffffffffffffffffffffffffffffffff1673ffffffffffffffffffffffffffffffffffffffff166108fc6003548361037d91906107cb565b9081150290604051600060405180830381858888f193505050501580156103a8573d6000803e3d6000fd5b505050565b60025481565b600073ffffffffffffffffffffffffffffffffffffffff82169050919050565b60006103de826103b3565b9050919050565b6103ee816103d3565b82525050565b600060208201905061040960008301846103e5565b92915050565b600061041a826103b3565b9050919050565b61042a8161040f565b82525050565b60006020820190506104456000830184610421565b92915050565b6000819050919050565b61045e8161044b565b82525050565b60006020820190506104796000830184610455565b92915050565b600082825260208201905092915050565b7f204f6e6c7920746865206c61777965722063616e20657865637574652074686960008201527f7320666e28292e00000000000000000000000000000000000000000000000000602082015250565b60006104ec60278361047f565b91506104f782610490565b604082019050919050565b6000602082019050818103600083015261051b816104df565b9050919050565b7f204f6e6c79207468652062656e65666963696172792063616e20696e766f6b6560008201527f207468697320666e202829212000000000000000000000000000000000000000602082015250565b600061057e602d8361047f565b915061058982610522565b604082019050919050565b600060208201905081810360008301526105ad81610571565b9050919050565b7f4d6178696d756d206e756d626572206f662020617661696c61626c652070617960008201527f6f75747320657863656564656421000000000000000000000000000000000000602082015250565b6000610610602e8361047f565b915061061b826105b4565b604082019050919050565b6000602082019050818103600083015261063f81610603565b9050919050565b7f46756e647320617265207374696c6c206c6f636b656400000000000000000000600082015250565b600061067c60168361047f565b915061068782610646565b602082019050919050565b600060208201905081810360008301526106ab8161066f565b9050919050565b7f4e487b7100000000000000000000000000000000000000000000000000000000600052601160045260246000fd5b60006106ec8261044b565b91506106f78361044b565b92508282101561070a576107096106b2565b5b828203905092915050565b7f4e487b7100000000000000000000000000000000000000000000000000000000600052601260045260246000fd5b600061074f8261044b565b915061075a8361044b565b92508261076a57610769610715565b5b828204905092915050565b60006107808261044b565b915061078b8361044b565b9250827fffffffffffffffffffffffffffffffffffffffffffffffffffffffffffffffff038211156107c0576107bf6106b2565b5b828201905092915050565b60006107d68261044b565b91506107e18361044b565b9250817fffffffffffffffffffffffffffffffffffffffffffffffffffffffffffffffff048311821515161561081a576108196106b2565b5b82820290509291505056fea2646970667358221220fbc0158c3fb60c0cd8157111fd4c3f00aea084a72c0bb81a1ad86c4cfd80386664736f6c634300080f0033",
  "immutableReferences": {},
  "source": "pragma solidity 0.8.15;\n\ncontract DeedMulti {\n    address public lawyer;\n    address  payable public beneficiary;\n    uint  public deploymentTime;\n    uint constant payouts =4;                           // I declare the number of payouts. I declare as constant to provide less strain on the code execution and save gas.\n    uint  amount ;                                       //  Ideclare the amounts to be paid at every payout. \n    uint constant interval = 1;                           //  I declare the interval between each payment. set at 1 second for testing purposes. \n    uint paidPayouts;                                   //  I declare it to track the number of completed payouts \n    \n    \n    \n    modifier onlyLawyer {\n        require(msg.sender == lawyer, \" Only the lawyer can execute this fn().\");\n        _;\n    }\n\n    constructor ( address _address, address payable _beneficiary, uint time) payable   {      \n        lawyer= _address;\n        beneficiary = _beneficiary;\n        deploymentTime = time +block.timestamp;\n        amount = msg.value/payouts;                       // every payout will be of equal amounts. this is why I define the amount in the constructor and  make it equal to the amount of ether sent upon deployment, divided by the payouts number \n      \n    }\n\n    function withdraw () external  {\n        require (msg.sender ==beneficiary, \" Only the beneficiary can invoke this fn ()! \");\n        require (paidPayouts<payouts, \"Maximum number of  available payouts exceeded!\");                   //check required for the beneficiary to not be able to exceed the maximum payouts                                         \n        require( block.timestamp >= deploymentTime, \"Funds are still locked\");                         \n        uint eligiblePayouts = (block.timestamp - deploymentTime)/interval ;                                //  I declare this variable in order to calculate how much  much payments the beneficiary is eligible for. the time difference between the fn invocation and the deployment time , divided by the payment interval\n        uint duePayouts = eligiblePayouts - paidPayouts;                                                     // I  also declare duepayouts, which is different form eligible payouts. The former is  derived from subtracting the already paid payouts from the eligible payouts.\n        duePayouts = duePayouts +paidPayouts >= payouts ? payouts-paidPayouts :duePayouts;                 // I use a ternary operator to check the duepayouts value and to prevent locking the funds forever in case the eligible payots exceed the payouts (4) due to forgeting to withdraw for a very long time. If duepayots and paidpayouts exceed 4, then duepayouts is equivelanet to 4- paidPayouts. Else, it is equal to itself.\n        paidPayouts +=duePayouts;                                                                           \n\n        beneficiary.transfer((duePayouts)*amount);\n        \n        \n\n    }\n \n\n     function suddenDeath () external onlyLawyer {                                             \n     }\n\n\n\n\n\n\n\n\n\n}",
  "sourcePath": "/Users/petartodorov/Desktop/coding/solidity/Dapp30/deedmulti/contracts/DeedMulti.sol",
  "compiler": {
    "name": "solc",
    "version": "0.8.15+commit.e14f2714.Emscripten.clang"
  },
  "schemaVersion": "3.4.8",
  "updatedAt": "2022-08-18T12:49:27.243Z",
  "networkType": "ethereum",
  "devdoc": {
    "kind": "dev",
    "methods": {},
    "version": 1
  },
  "userdoc": {
    "kind": "user",
    "methods": {},
    "version": 1
  }
}